:100000000C942A000C9434000C9436000C943400A8
:100010000C9434000C9434000C9434000C94340090
:100020000C9434000C9434000C9434000C94340080
:100030000C9434000C9434000C9434000C94340070
:100040000C9434000C9434000C9434000C94340060
:100050000C94340011241FBECFE5D8E0DEBFCDBF25
:100060000E9458000C949E000C9400001F920F9266
:100070000FB60F9211242F938F939F9388B38068AC
:1000800088BB2FE38DE093E0215080409040E1F762
:1000900000C000008AB780688ABF88B38F7788BBAA
:1000A0009F918F912F910F900FBE0F901F901895D9
:1000B00087E881BB80E88BBF84BF84BF88E085BFB1
:1000C00084E085BF1ABA88E787BB789496B39770A7
:1000D00089B38F7029B3422F42954F70911102C09E
:1000E000840F24C0913011F4841B20C0923011F48D
:1000F00084231CC0933011F4842B18C0943019F45D
:10010000842B809513C0953029F401C0880F4A953F
:10011000EAF70CC0963049F4282F30E0C90102C03C
:10012000959587954A95E2F701C080E08F7009F4B4
:100130008068880F880F880F88BBC8CFF894FFCFDE
:00000001FF
