S00B0000414C552E7372656337
S11300000C942A000C9434000C9434000C943400A6
S11300100C9434000C9434000C9434000C9434008C
S11300200C9434000C9434000C9434000C9434007C
S11300300C9434000C9434000C9434000C9434006C
S11300400C9434000C9434000C9434000C9434005C
S11300500C94340011241FBECFE5D8E0DEBFCDBF21
S11300600E9436000C9470000C9400001ABA88EFB9
S113007087BB8FE881BB96B3977089B38F7029B320
S1130080422F42954F70911102C0840F24C09130C9
S113009011F4841B20C0923011F484231CC09330CB
S11300A011F4842B18C0943019F4842B809513C058
S11300B0953029F401C0880F4A95EAF70CC09630B0
S11300C049F4282F30E0C90102C0959587954A95D7
S11300D0E2F701C080E08F7009F4806882BBCBCF67
S10700E0F894FFCFBE
S9030000FC
