:100000000C942A000C9447000C9447000C94470071
:100010000C9447000C9447000C9447000C94470044
:100020000C9447000C9447000C9447000C94470034
:100030000C9447000C9447000C9447000C94470024
:100040000C9447000C9447000C9447000C94470014
:100050000C94470011241FBECFE5D8E0DEBFCDBF12
:1000600010E0A0E6B0E0E8EDF0E002C005900D92EF
:10007000AA37B107D9F720E0AAE7B0E001C01D9286
:10008000AC37B207E1F70E9449000C946A000C9467
:1000900000001ABA1BBA8FEF87BB81BB99B380915E
:1000A00060009817D9F3E9B3E0936000F0E0EE0F39
:1000B000FF1FEF59FF4F9081818190937A008093C9
:1000C0007B0098BB82BB83ED90E30197F1F700C002
:0800D0000000E4CFF894FFCF1B
:1000D800FF6F30133011C012611302757074E7148A
:0A00E8002723B1424441A432510025
:00000001FF
