S0130000636F6E74726F6C556E69742E7372656370
S11300000C942A000C943F000C943F000C943F0085
S11300100C943F000C943F000C943F000C943F0060
S11300200C943F000C943F000C943F000C943F0050
S11300300C943F000C943F000C943F000C943F0040
S11300400C943F000C943F000C943F000C943F0030
S11300500C943F0011241FBECFE5D8E0DEBFCDBF16
S113006010E0A0E6B0E0E0ECF0E002C005900D92F4
S1130070A038B107D9F70E9441000C945E000C949B
S1130080000080EF8ABB8FEF87BB81BB9FEF89B3F2
S11300908F709817E1F399B39F70E92FF0E0EE0F9A
S11300A0FF1FE05AFF4F808188BB818182BBE3ED53
S11300B0F0E33197F1F700C00000E9CFF894FFCFE7
S11300C001091100030900050505040900090305D8
S11300D00800400606050209010580070205210003
S9030000FC
