:100000000C942A000C9434000C9434000C943400AA
:100010000C9434000C9434000C9434000C94340090
:100020000C9434000C9434000C9434000C94340080
:100030000C9434000C9434000C9434000C94340070
:100040000C9434000C9434000C9434000C94340060
:100050000C94340011241FBECFE5D8E0DEBFCDBF25
:100060000E9436000C944E000C9400008FEF87BB6A
:1000700080E090E00196843091056CF42FEF28BB6E
:1000800018BA2FEB37E249E0215030404040E1F709
:1000900000C00000EFCF80E090E00895F894FFCF1B
:00000001FF
