:100000000C942A000C943C000C943C000C943C0092
:100010000C943C000C943C000C943C000C943C0070
:100020000C943C000C943C000C943C000C943C0060
:100030000C943C000C943C000C943C000C943C0050
:100040000C943C000C943C000C943C000C943C0040
:100050000C943C0011241FBECFE5D8E0DEBFCDBF1D
:1000600020E0A0E6B0E001C01D92A836B207E1F79B
:100070000E944C000C94BC000C94000082E08BB9F0
:1000800088E18AB986E880BD10BC8CE089B9089502
:100090005D9BFECF8CB908950E943E002FE34DE09A
:1000A00083E0215040408040E1F700C0000080E83C
:1000B00084BF84BF1ABA17BA8FEF84BB80EE81BBAE
:1000C00020E001C0212FE9B336B310B3AE2FA295C3
:1000D000AF70A770B0E0A05ABF4F8C9140E1849FF1
:1000E000C0011124E770F0E0E05AFF4F9081892BA6
:1000F00085BB14FD08C011C0E82FF0E0E05AFF4FA7
:1001000010828F5F01C080E08830B0F387EA91E60B
:100110000197F1F700C00000D6CF822F812783FF1F
:10012000D1CF23FF0AC022FF08C0E32FE770F0E021
:10013000E05AFF4F32953F70308387EA91E601978E
:10014000F1F700C00000C0E0D0E00BC0FE01E05AB3
:10015000FF4F80818E5C0E94480080E20E94480030
:100160002196C830D10594F38DE00E9448008AE0C2
:0C0170000E944800212FA7CFF894FFCF79
:00000001FF
