:100000000C942A000C9434000C9434000C943400AA
:100010000C9434000C9434000C9434000C94340090
:100020000C9434000C9434000C9434000C94340080
:100030000C9434000C9434000C9434000C94340070
:100040000C9434000C9434000C9434000C94340060
:100050000C94340011241FBECFE5D8E0DEBFCDBF25
:100060000E9436000C9481000C94000087E881BB4C
:100070001ABA88E787BB96B3977089B38F7029B394
:10008000422F42954F70911102C0840F24C09130CD
:1000900011F4841B20C0923011F484231CC09330CF
:1000A00011F4842B18C0943019F4842B809513C05C
:1000B000953029F401C0880F4A95EAF70CC09630B4
:1000C00049F4282F30E0C90102C0959587954A95DB
:1000D000E2F701C080E08F7009F48068839B0CC058
:1000E00096B3906896BBE3EDF0E33197F1F700C06B
:1000F000000096B39F7796BB880F880F880F88BB48
:06010000BACFF894FFCF16
:00000001FF
