:100000000C942A000C9434000C9436000C943400A8
:100010000C9434000C9434000C9434000C94340090
:100020000C9434000C9434000C9434000C94340080
:100030000C9434000C9434000C9434000C94340070
:100040000C9434000C9434000C9434000C94340060
:100050000C94340011241FBECFE5D8E0DEBFCDBF25
:100060000E9455000C9462000C9400001F920F92A5
:100070000FB60F9211242F938F939F938FEF88BB0E
:100080002FE38DE093E0215080409040E1F700C0E5
:1000900000008AB780688ABF18BA9F918F912F910C
:1000A0000F900FBE0F901F9018958FEF87BB18BA57
:1000B00080E88BBF85B7886085BF85B7846085BFC2
:0800C0007894FFCFF894FFCF04
:00000001FF
