:100000000C942A000C9434000C9434000C943400AA
:100010000C9434000C9434000C9434000C94340090
:100020000C9434000C9434000C9434000C94340080
:100030000C9434000C9434000C9434000C94340070
:100040000C9434000C9434000C9434000C94340060
:100050000C94340011241FBECFE5D8E0DEBFCDBF25
:100060000E9436000C9444000C94000017BA8FEFE5
:100070008ABB18BA86B38F5F8BBB83ED90E3019781
:0C008000F1F700C00000F6CFF894FFCFAD
:00000001FF
