S01100006261736963546573742E7372656371
S11300000C942A000C9434000C9434000C943400A6
S11300100C9434000C9434000C9434000C9434008C
S11300200C9434000C9434000C9434000C9434007C
S11300300C9434000C9434000C9434000C9434006C
S11300400C9434000C9434000C9434000C9434005C
S11300500C94340011241FBECFE5D8E0DEBFCDBF21
S11300600E9436000C943F000C9400008FEF81BB7B
S11300708ABB87BB8FEF82BB8BBB88BBFBCFF8945B
S1050080FFCFAC
S9030000FC
